:100000000C945C000C946E000C946E000C946E00CA
:100010000C946E000C946E000C946E000C946E00A8
:100020000C946E000C946E000C946E000C946E0098
:100030000C946E000C946E000C946E000C946E0088
:100040000C94D7000C946E000C946E000C946E000F
:100050000C946E000C946E000C946E000C946E0068
:100060000C946E000C946E00000000080002010069
:100070000003040700000000000000000000000072
:10008000250028002B0000000000240027002A0083
:10009000040404040404040402020202020203032E
:1000A0000303030301020408102040800102040836
:1000B000102001020408102011241FBECFEFD8E049
:1000C000DEBFCDBF21E0A0E0B1E001C01D92A930AC
:1000D000B207E1F70E9421010C9478010C94000012
:1000E00090E0FC01EC55FF4F249180579F4FFC019D
:1000F0008491882399F090E0880F991FFC01EA57BA
:10010000FF4FA591B491FC01E458FF4F8591949164
:100110008FB7F894EC91E22BEC938FBF089590E0A9
:10012000FC01E859FF4F2491FC01EC55FF4F34913D
:10013000FC01E057FF4FE491EE23B9F0222339F0A0
:100140002330F1F098F4213009F1223019F1F0E078
:10015000EE0FFF1FE458FF4FA591B4918FB7F894AD
:10016000EC9130953E233C938FBF08952730A9F042
:100170002830C9F0243059F7809180008F7D03C06A
:10018000809180008F7780938000E1CF84B58F7756
:1001900084BDDDCF84B58F7DFBCF8091B0008F779C
:1001A0008093B000D4CF8091B0008F7DF9CF1F92A3
:1001B0000F920FB60F9211242F933F938F939F931B
:1001C000AF93BF938091050190910601A091070123
:1001D000B09108013091040123E0230F2D3758F529
:1001E0000196A11DB11D20930401809305019093F8
:1001F0000601A0930701B09308018091000190913E
:100200000101A0910201B09103010196A11DB11D50
:100210008093000190930101A0930201B093030128
:10022000BF91AF919F918F913F912F910F900FBEF2
:100230000F901F90189526E8230F0296A11DB11D5F
:10024000D2CF789484B5826084BD84B5816084BD4A
:1002500085B5826085BD85B5816085BD80916E0064
:10026000816080936E001092810080918100826095
:1002700080938100809181008160809381008091D2
:1002800080008160809380008091B10084608093C1
:10029000B1008091B00081608093B00080917A00BD
:1002A000846080937A0080917A00826080937A00E3
:1002B00080917A00816080937A0080917A008068D2
:1002C00080937A001092C100F89484E00E9470003C
:1002D00088E00E947000C0E0D0E084E00E948F00BF
:1002E00088E00E948F002097C1F30E940000F5CFA4
:0402F000F894FFCFB0
:107E0000112484B714BE81FFF0D085E080938100F7
:107E100082E08093C00088E18093C10086E0809377
:107E2000C20080E18093C4008EE0C9D0259A86E02C
:107E300020E33CEF91E0309385002093840096BBD3
:107E4000B09BFECF1D9AA8958150A9F7CC24DD24C4
:107E500088248394B5E0AB2EA1E19A2EF3E0BF2EE7
:107E6000A2D0813461F49FD0082FAFD0023811F036
:107E7000013811F484E001C083E08DD089C08234E0
:107E800011F484E103C0853419F485E0A6D080C0E4
:107E9000853579F488D0E82EFF2485D0082F10E0AE
:107EA000102F00270E291F29000F111F8ED06801E7
:107EB0006FC0863521F484E090D080E0DECF843638
:107EC00009F040C070D06FD0082F6DD080E0C81688
:107ED00080E7D80618F4F601B7BEE895C0E0D1E017
:107EE00062D089930C17E1F7F0E0CF16F0E7DF06D8
:107EF00018F0F601B7BEE89568D007B600FCFDCFD4
:107F0000A601A0E0B1E02C9130E011968C91119780
:107F100090E0982F8827822B932B1296FA010C0160
:107F200087BEE89511244E5F5F4FF1E0A038BF0790
:107F300051F7F601A7BEE89507B600FCFDCF97BE46
:107F4000E89526C08437B1F42ED02DD0F82E2BD052
:107F50003CD0F601EF2C8F010F5F1F4F84911BD097
:107F6000EA94F801C1F70894C11CD11CFA94CF0C13
:107F7000D11C0EC0853739F428D08EE10CD085E9AC
:107F80000AD08FE07ACF813511F488E018D01DD067
:107F900080E101D065CF982F8091C00085FFFCCF94
:107FA0009093C60008958091C00087FFFCCF809118
:107FB000C00084FD01C0A8958091C6000895E0E648
:107FC000F0E098E1908380830895EDDF803219F02E
:107FD00088E0F5DFFFCF84E1DECF1F93182FE3DFCA
:107FE0001150E9F7F2DF1F91089580E0E8DFEE27F6
:047FF000FF270994CA
:027FFE00040479
:0400000300007E007B
:00000001FF
